{
  "contractName": "election",
  "abi": [
    {
      "anonymous": false,
      "inputs": [
        {
          "indexed": true,
          "internalType": "address",
          "name": "oldOwner",
          "type": "address"
        },
        {
          "indexed": true,
          "internalType": "address",
          "name": "newOwner",
          "type": "address"
        }
      ],
      "name": "OwnerSet",
      "type": "event"
    },
    {
      "anonymous": false,
      "inputs": [],
      "name": "votingStarted",
      "type": "event"
    },
    {
      "inputs": [
        {
          "internalType": "address",
          "name": "newOwner",
          "type": "address"
        }
      ],
      "name": "changeOwner",
      "outputs": [],
      "stateMutability": "nonpayable",
      "type": "function"
    },
    {
      "inputs": [
        {
          "internalType": "uint256",
          "name": "",
          "type": "uint256"
        }
      ],
      "name": "contestents",
      "outputs": [
        {
          "internalType": "bool",
          "name": "isContestent",
          "type": "bool"
        },
        {
          "internalType": "string",
          "name": "name",
          "type": "string"
        },
        {
          "internalType": "bool",
          "name": "isVoted",
          "type": "bool"
        },
        {
          "internalType": "string",
          "name": "proposal",
          "type": "string"
        },
        {
          "internalType": "address",
          "name": "addr",
          "type": "address"
        }
      ],
      "stateMutability": "view",
      "type": "function"
    },
    {
      "inputs": [],
      "name": "getOwner",
      "outputs": [
        {
          "internalType": "address",
          "name": "",
          "type": "address"
        }
      ],
      "stateMutability": "view",
      "type": "function"
    },
    {
      "inputs": [
        {
          "internalType": "address",
          "name": "_addr",
          "type": "address"
        },
        {
          "internalType": "string",
          "name": "_name",
          "type": "string"
        },
        {
          "internalType": "string",
          "name": "_proposal",
          "type": "string"
        }
      ],
      "name": "addContestent",
      "outputs": [],
      "stateMutability": "nonpayable",
      "type": "function"
    },
    {
      "inputs": [
        {
          "internalType": "address",
          "name": "_addr",
          "type": "address"
        },
        {
          "internalType": "string",
          "name": "_name",
          "type": "string"
        }
      ],
      "name": "addVoter",
      "outputs": [],
      "stateMutability": "nonpayable",
      "type": "function"
    },
    {
      "inputs": [
        {
          "internalType": "address",
          "name": "_addr",
          "type": "address"
        }
      ],
      "name": "getProposal",
      "outputs": [
        {
          "internalType": "string",
          "name": "",
          "type": "string"
        }
      ],
      "stateMutability": "view",
      "type": "function"
    },
    {
      "inputs": [],
      "name": "getContestents",
      "outputs": [
        {
          "components": [
            {
              "internalType": "bool",
              "name": "isContestent",
              "type": "bool"
            },
            {
              "internalType": "string",
              "name": "name",
              "type": "string"
            },
            {
              "internalType": "bool",
              "name": "isVoted",
              "type": "bool"
            },
            {
              "internalType": "string",
              "name": "proposal",
              "type": "string"
            },
            {
              "internalType": "address",
              "name": "addr",
              "type": "address"
            }
          ],
          "internalType": "struct election.people[]",
          "name": "",
          "type": "tuple[]"
        }
      ],
      "stateMutability": "view",
      "type": "function"
    },
    {
      "inputs": [],
      "name": "startVoting",
      "outputs": [],
      "stateMutability": "nonpayable",
      "type": "function"
    },
    {
      "inputs": [
        {
          "internalType": "address",
          "name": "_addr",
          "type": "address"
        }
      ],
      "name": "castVote",
      "outputs": [],
      "stateMutability": "nonpayable",
      "type": "function"
    },
    {
      "inputs": [],
      "name": "endElection",
      "outputs": [],
      "stateMutability": "nonpayable",
      "type": "function"
    },
    {
      "inputs": [],
      "name": "getWinner",
      "outputs": [
        {
          "components": [
            {
              "internalType": "bool",
              "name": "isContestent",
              "type": "bool"
            },
            {
              "internalType": "string",
              "name": "name",
              "type": "string"
            },
            {
              "internalType": "bool",
              "name": "isVoted",
              "type": "bool"
            },
            {
              "internalType": "string",
              "name": "proposal",
              "type": "string"
            },
            {
              "internalType": "address",
              "name": "addr",
              "type": "address"
            }
          ],
          "internalType": "struct election.people",
          "name": "",
          "type": "tuple"
        }
      ],
      "stateMutability": "view",
      "type": "function"
    }
  ],
  "bytecode": "0x608060405260008060146101000a81548160ff021916908315150217905550601e6002556000600360006101000a81548160ff02191690831515021790555034801561004a57600080fd5b50336000806101000a81548173ffffffffffffffffffffffffffffffffffffffff021916908373ffffffffffffffffffffffffffffffffffffffff16021790555060008054906101000a900473ffffffffffffffffffffffffffffffffffffffff1673ffffffffffffffffffffffffffffffffffffffff16600073ffffffffffffffffffffffffffffffffffffffff167f342827c97908e5e2f71151c08502a66d44b6f758e3ac2f1de95f02eb95f0a73560405160405180910390a3612271806101156000396000f3fe608060405234801561001057600080fd5b50600436106100a95760003560e01c80638e7ea5b2116100715780638e7ea5b2146101305780638f8bea0e1461014e578063a6f9dae11461016a578063a8ca6bfe14610186578063d9e95a98146101a4578063eb8b9811146101c0576100a9565b80631ec6b60a146100ae57806321cabd58146100b857806353358fc4146100ec57806359f7846814610108578063893d20e814610112575b600080fd5b6100b66101f0565b005b6100d260048036038101906100cd9190611963565b6102ce565b6040516100e3959493929190611ccc565b60405180910390f35b61010660048036038101906101019190611867565b61045e565b005b610110610641565b005b61011a6106ec565b6040516101279190611c8f565b60405180910390f35b610138610715565b6040516101459190611e0f565b60405180910390f35b610168600480360381019061016391906118e4565b610af1565b005b610184600480360381019061017f9190611867565b610f2c565b005b61018e611077565b60405161019b9190611caa565b60405180910390f35b6101be60048036038101906101b99190611890565b611286565b005b6101da60048036038101906101d59190611867565b61157f565b6040516101e79190611d2d565b60405180910390f35b60008054906101000a900473ffffffffffffffffffffffffffffffffffffffff1673ffffffffffffffffffffffffffffffffffffffff163373ffffffffffffffffffffffffffffffffffffffff161461027e576040517f08c379a000000000000000000000000000000000000000000000000000000000815260040161027590611d6f565b60405180910390fd5b6001600060146101000a81548160ff021916908315150217905550426001819055507f83d948b71439748cf657be1bc73a1c16684baf57b04ec56eb9167850f74a768460405160405180910390a1565b600681815481106102de57600080fd5b90600052602060002090600502016000915090508060000160009054906101000a900460ff169080600101805461031490611fcd565b80601f016020809104026020016040519081016040528092919081815260200182805461034090611fcd565b801561038d5780601f106103625761010080835404028352916020019161038d565b820191906000526020600020905b81548152906001019060200180831161037057829003601f168201915b5050505050908060020160009054906101000a900460ff16908060030180546103b590611fcd565b80601f01602080910402602001604051908101604052809291908181526020018280546103e190611fcd565b801561042e5780601f106104035761010080835404028352916020019161042e565b820191906000526020600020905b81548152906001019060200180831161041157829003601f168201915b5050505050908060040160009054906101000a900473ffffffffffffffffffffffffffffffffffffffff16905085565b60011515600460008373ffffffffffffffffffffffffffffffffffffffff1673ffffffffffffffffffffffffffffffffffffffff16815260200190815260200160002060000160009054906101000a900460ff1615151480156104d4575060011515600060149054906101000a900460ff161515145b6104dd57600080fd5b426002546001546104ee9190611eed565b116104f857600080fd5b60001515600460003373ffffffffffffffffffffffffffffffffffffffff1673ffffffffffffffffffffffffffffffffffffffff16815260200190815260200160002060020160009054906101000a900460ff1615151461058e576040517f08c379a000000000000000000000000000000000000000000000000000000000815260040161058590611d4f565b60405180910390fd5b6001600460003373ffffffffffffffffffffffffffffffffffffffff1673ffffffffffffffffffffffffffffffffffffffff16815260200190815260200160002060020160006101000a81548160ff021916908315150217905550600560008273ffffffffffffffffffffffffffffffffffffffff1673ffffffffffffffffffffffffffffffffffffffff168152602001908152602001600020600081548092919061063990612030565b919050555050565b60008054906101000a900473ffffffffffffffffffffffffffffffffffffffff1673ffffffffffffffffffffffffffffffffffffffff163373ffffffffffffffffffffffffffffffffffffffff16146106cf576040517f08c379a00000000000000000000000000000000000000000000000000000000081526004016106c690611d6f565b60405180910390fd5b6001600360006101000a81548160ff021916908315150217905550565b60008060009054906101000a900473ffffffffffffffffffffffffffffffffffffffff16905090565b61071d6116e9565b4260025460015461072e9190611eed565b11158061074e575060011515600360009054906101000a900460ff161515145b61075757600080fd5b61075f6116e9565b6000805b600680549050811015610ae8578160056000600684815481106107af577f4e487b7100000000000000000000000000000000000000000000000000000000600052603260045260246000fd5b906000526020600020906005020160040160009054906101000a900473ffffffffffffffffffffffffffffffffffffffff1673ffffffffffffffffffffffffffffffffffffffff1673ffffffffffffffffffffffffffffffffffffffff168152602001908152602001600020541115610ad5576005600060068381548110610860577f4e487b7100000000000000000000000000000000000000000000000000000000600052603260045260246000fd5b906000526020600020906005020160040160009054906101000a900473ffffffffffffffffffffffffffffffffffffffff1673ffffffffffffffffffffffffffffffffffffffff1673ffffffffffffffffffffffffffffffffffffffff16815260200190815260200160002054915060068181548110610909577f4e487b7100000000000000000000000000000000000000000000000000000000600052603260045260246000fd5b90600052602060002090600502016040518060a00160405290816000820160009054906101000a900460ff1615151515815260200160018201805461094d90611fcd565b80601f016020809104026020016040519081016040528092919081815260200182805461097990611fcd565b80156109c65780601f1061099b576101008083540402835291602001916109c6565b820191906000526020600020905b8154815290600101906020018083116109a957829003601f168201915b505050505081526020016002820160009054906101000a900460ff161515151581526020016003820180546109fa90611fcd565b80601f0160208091040260200160405190810160405280929190818152602001828054610a2690611fcd565b8015610a735780601f10610a4857610100808354040283529160200191610a73565b820191906000526020600020905b815481529060010190602001808311610a5657829003601f168201915b505050505081526020016004820160009054906101000a900473ffffffffffffffffffffffffffffffffffffffff1673ffffffffffffffffffffffffffffffffffffffff1673ffffffffffffffffffffffffffffffffffffffff168152505092505b8080610ae090612030565b915050610763565b50819250505090565b60008054906101000a900473ffffffffffffffffffffffffffffffffffffffff1673ffffffffffffffffffffffffffffffffffffffff163373ffffffffffffffffffffffffffffffffffffffff1614610b7f576040517f08c379a0000000000000000000000000000000000000000000000000000000008152600401610b7690611d6f565b60405180910390fd5b60001515600460008573ffffffffffffffffffffffffffffffffffffffff1673ffffffffffffffffffffffffffffffffffffffff16815260200190815260200160002060000160009054906101000a900460ff16151514610c15576040517f08c379a0000000000000000000000000000000000000000000000000000000008152600401610c0c90611d8f565b60405180910390fd5b60001515600060149054906101000a900460ff16151514610c6b576040517f08c379a0000000000000000000000000000000000000000000000000000000008152600401610c6290611daf565b60405180910390fd5b6040518060a001604052806001151581526020018381526020016000151581526020018281526020018473ffffffffffffffffffffffffffffffffffffffff16815250600460008573ffffffffffffffffffffffffffffffffffffffff1673ffffffffffffffffffffffffffffffffffffffff16815260200190815260200160002060008201518160000160006101000a81548160ff0219169083151502179055506020820151816001019080519060200190610d29929190611732565b5060408201518160020160006101000a81548160ff0219169083151502179055506060820151816003019080519060200190610d66929190611732565b5060808201518160040160006101000a81548173ffffffffffffffffffffffffffffffffffffffff021916908373ffffffffffffffffffffffffffffffffffffffff16021790555090505060066040518060a001604052806001151581526020018481526020016000151581526020018381526020018573ffffffffffffffffffffffffffffffffffffffff16815250908060018154018082558091505060019003906000526020600020906005020160009091909190915060008201518160000160006101000a81548160ff0219169083151502179055506020820151816001019080519060200190610e5b929190611732565b5060408201518160020160006101000a81548160ff0219169083151502179055506060820151816003019080519060200190610e98929190611732565b5060808201518160040160006101000a81548173ffffffffffffffffffffffffffffffffffffffff021916908373ffffffffffffffffffffffffffffffffffffffff16021790555050506000600560008573ffffffffffffffffffffffffffffffffffffffff1673ffffffffffffffffffffffffffffffffffffffff16815260200190815260200160002081905550505050565b60008054906101000a900473ffffffffffffffffffffffffffffffffffffffff1673ffffffffffffffffffffffffffffffffffffffff163373ffffffffffffffffffffffffffffffffffffffff1614610fba576040517f08c379a0000000000000000000000000000000000000000000000000000000008152600401610fb190611d6f565b60405180910390fd5b8073ffffffffffffffffffffffffffffffffffffffff1660008054906101000a900473ffffffffffffffffffffffffffffffffffffffff1673ffffffffffffffffffffffffffffffffffffffff167f342827c97908e5e2f71151c08502a66d44b6f758e3ac2f1de95f02eb95f0a73560405160405180910390a3806000806101000a81548173ffffffffffffffffffffffffffffffffffffffff021916908373ffffffffffffffffffffffffffffffffffffffff16021790555050565b60606006805480602002602001604051908101604052809291908181526020016000905b8282101561127d57838290600052602060002090600502016040518060a00160405290816000820160009054906101000a900460ff161515151581526020016001820180546110e990611fcd565b80601f016020809104026020016040519081016040528092919081815260200182805461111590611fcd565b80156111625780601f1061113757610100808354040283529160200191611162565b820191906000526020600020905b81548152906001019060200180831161114557829003601f168201915b505050505081526020016002820160009054906101000a900460ff1615151515815260200160038201805461119690611fcd565b80601f01602080910402602001604051908101604052809291908181526020018280546111c290611fcd565b801561120f5780601f106111e45761010080835404028352916020019161120f565b820191906000526020600020905b8154815290600101906020018083116111f257829003601f168201915b505050505081526020016004820160009054906101000a900473ffffffffffffffffffffffffffffffffffffffff1673ffffffffffffffffffffffffffffffffffffffff1673ffffffffffffffffffffffffffffffffffffffff16815250508152602001906001019061109b565b50505050905090565b60008054906101000a900473ffffffffffffffffffffffffffffffffffffffff1673ffffffffffffffffffffffffffffffffffffffff163373ffffffffffffffffffffffffffffffffffffffff1614611314576040517f08c379a000000000000000000000000000000000000000000000000000000000815260040161130b90611d6f565b60405180910390fd5b60001515600460008473ffffffffffffffffffffffffffffffffffffffff1673ffffffffffffffffffffffffffffffffffffffff16815260200190815260200160002060000160009054906101000a900460ff161515146113aa576040517f08c379a00000000000000000000000000000000000000000000000000000000081526004016113a190611def565b60405180910390fd5b60001515600060149054906101000a900460ff16151514611400576040517f08c379a00000000000000000000000000000000000000000000000000000000081526004016113f790611daf565b60405180910390fd5b6040518060a001604052806000151581526020018281526020016000151581526020016040518060400160405280600381526020017f6e696c000000000000000000000000000000000000000000000000000000000081525081526020018373ffffffffffffffffffffffffffffffffffffffff16815250600460008473ffffffffffffffffffffffffffffffffffffffff1673ffffffffffffffffffffffffffffffffffffffff16815260200190815260200160002060008201518160000160006101000a81548160ff02191690831515021790555060208201518160010190805190602001906114f3929190611732565b5060408201518160020160006101000a81548160ff0219169083151502179055506060820151816003019080519060200190611530929190611732565b5060808201518160040160006101000a81548173ffffffffffffffffffffffffffffffffffffffff021916908373ffffffffffffffffffffffffffffffffffffffff1602179055509050505050565b606060011515600460008473ffffffffffffffffffffffffffffffffffffffff1673ffffffffffffffffffffffffffffffffffffffff16815260200190815260200160002060000160009054906101000a900460ff16151514611617576040517f08c379a000000000000000000000000000000000000000000000000000000000815260040161160e90611dcf565b60405180910390fd5b600460008373ffffffffffffffffffffffffffffffffffffffff1673ffffffffffffffffffffffffffffffffffffffff168152602001908152602001600020600301805461166490611fcd565b80601f016020809104026020016040519081016040528092919081815260200182805461169090611fcd565b80156116dd5780601f106116b2576101008083540402835291602001916116dd565b820191906000526020600020905b8154815290600101906020018083116116c057829003601f168201915b50505050509050919050565b6040518060a001604052806000151581526020016060815260200160001515815260200160608152602001600073ffffffffffffffffffffffffffffffffffffffff1681525090565b82805461173e90611fcd565b90600052602060002090601f01602090048101928261176057600085556117a7565b82601f1061177957805160ff19168380011785556117a7565b828001600101855582156117a7579182015b828111156117a657825182559160200191906001019061178b565b5b5090506117b491906117b8565b5090565b5b808211156117d15760008160009055506001016117b9565b5090565b60006117e86117e384611e56565b611e31565b90508281526020810184848401111561180057600080fd5b61180b848285611f8b565b509392505050565b6000813590506118228161220d565b92915050565b600082601f83011261183957600080fd5b81356118498482602086016117d5565b91505092915050565b60008135905061186181612224565b92915050565b60006020828403121561187957600080fd5b600061188784828501611813565b91505092915050565b600080604083850312156118a357600080fd5b60006118b185828601611813565b925050602083013567ffffffffffffffff8111156118ce57600080fd5b6118da85828601611828565b9150509250929050565b6000806000606084860312156118f957600080fd5b600061190786828701611813565b935050602084013567ffffffffffffffff81111561192457600080fd5b61193086828701611828565b925050604084013567ffffffffffffffff81111561194d57600080fd5b61195986828701611828565b9150509250925092565b60006020828403121561197557600080fd5b600061198384828501611852565b91505092915050565b60006119988383611b95565b905092915050565b6119a981611f43565b82525050565b6119b881611f43565b82525050565b60006119c982611e97565b6119d38185611eba565b9350836020820285016119e585611e87565b8060005b85811015611a215784840389528151611a02858261198c565b9450611a0d83611ead565b925060208a019950506001810190506119e9565b50829750879550505050505092915050565b611a3c81611f55565b82525050565b611a4b81611f55565b82525050565b6000611a5c82611ea2565b611a668185611ecb565b9350611a76818560208601611f9a565b611a7f81612106565b840191505092915050565b6000611a9582611ea2565b611a9f8185611edc565b9350611aaf818560208601611f9a565b611ab881612106565b840191505092915050565b6000611ad0600d83611edc565b9150611adb82612117565b602082019050919050565b6000611af3601383611edc565b9150611afe82612140565b602082019050919050565b6000611b16601483611edc565b9150611b2182612169565b602082019050919050565b6000611b39601683611edc565b9150611b4482612192565b602082019050919050565b6000611b5c601083611edc565b9150611b67826121bb565b602082019050919050565b6000611b7f600f83611edc565b9150611b8a826121e4565b602082019050919050565b600060a083016000830151611bad6000860182611a33565b5060208301518482036020860152611bc58282611a51565b9150506040830151611bda6040860182611a33565b5060608301518482036060860152611bf28282611a51565b9150506080830151611c0760808601826119a0565b508091505092915050565b600060a083016000830151611c2a6000860182611a33565b5060208301518482036020860152611c428282611a51565b9150506040830151611c576040860182611a33565b5060608301518482036060860152611c6f8282611a51565b9150506080830151611c8460808601826119a0565b508091505092915050565b6000602082019050611ca460008301846119af565b92915050565b60006020820190508181036000830152611cc481846119be565b905092915050565b600060a082019050611ce16000830188611a42565b8181036020830152611cf38187611a8a565b9050611d026040830186611a42565b8181036060830152611d148185611a8a565b9050611d2360808301846119af565b9695505050505050565b60006020820190508181036000830152611d478184611a8a565b905092915050565b60006020820190508181036000830152611d6881611ac3565b9050919050565b60006020820190508181036000830152611d8881611ae6565b9050919050565b60006020820190508181036000830152611da881611b09565b9050919050565b60006020820190508181036000830152611dc881611b2c565b9050919050565b60006020820190508181036000830152611de881611b4f565b9050919050565b60006020820190508181036000830152611e0881611b72565b9050919050565b60006020820190508181036000830152611e298184611c12565b905092915050565b6000611e3b611e4c565b9050611e478282611fff565b919050565b6000604051905090565b600067ffffffffffffffff821115611e7157611e706120d7565b5b611e7a82612106565b9050602081019050919050565b6000819050602082019050919050565b600081519050919050565b600081519050919050565b6000602082019050919050565b600082825260208201905092915050565b600082825260208201905092915050565b600082825260208201905092915050565b6000611ef882611f81565b9150611f0383611f81565b9250827fffffffffffffffffffffffffffffffffffffffffffffffffffffffffffffffff03821115611f3857611f37612079565b5b828201905092915050565b6000611f4e82611f61565b9050919050565b60008115159050919050565b600073ffffffffffffffffffffffffffffffffffffffff82169050919050565b6000819050919050565b82818337600083830152505050565b60005b83811015611fb8578082015181840152602081019050611f9d565b83811115611fc7576000848401525b50505050565b60006002820490506001821680611fe557607f821691505b60208210811415611ff957611ff86120a8565b5b50919050565b61200882612106565b810181811067ffffffffffffffff82111715612027576120266120d7565b5b80604052505050565b600061203b82611f81565b91507fffffffffffffffffffffffffffffffffffffffffffffffffffffffffffffffff82141561206e5761206d612079565b5b600182019050919050565b7f4e487b7100000000000000000000000000000000000000000000000000000000600052601160045260246000fd5b7f4e487b7100000000000000000000000000000000000000000000000000000000600052602260045260246000fd5b7f4e487b7100000000000000000000000000000000000000000000000000000000600052604160045260246000fd5b6000601f19601f8301169050919050565b7f416c726561647920566f74656400000000000000000000000000000000000000600082015250565b7f43616c6c6572206973206e6f74206f776e657200000000000000000000000000600082015250565b7f416c7265616479206120636f6e74657374656e74000000000000000000000000600082015250565b7f566f74696e6720616c7265616479207374617274656400000000000000000000600082015250565b7f4e6f74206120636f6e74657374656e7400000000000000000000000000000000600082015250565b7f416c7265616479206120766f7465720000000000000000000000000000000000600082015250565b61221681611f43565b811461222157600080fd5b50565b61222d81611f81565b811461223857600080fd5b5056fea2646970667358221220c14a9617ac64ca1dad94a0a777e21bfaee8d063abb9599e9eec90b40c3a181c564736f6c63430008010033",
  "immutableReferences": {},
  "source": "pragma solidity >=0.7.0 <0.9.0;\nimport \"./Owner.sol\";\n\ncontract election is Owner {\n    struct people{\n        bool isContestent;\n        string name;\n        bool isVoted;\n        string proposal;\n        address addr;\n    }\n    bool isVotingStarted = false;\n    uint votingStartTime;\n    uint votingTime = 30 seconds;\n    bool isVotingEnded = false;\n    mapping(address => people) private peoples ;\n    mapping(address => uint256) private addrToVoteCount;\n    people[] public contestents;\n\n    event votingStarted();  \n\n    function addContestent (address _addr , string memory _name ,string memory _proposal ) public isOwner{\n        require(peoples[_addr].isContestent==false,\"Already a contestent\");\n        require(isVotingStarted==false,\"Voting already started\");\n        peoples[_addr]=people(true, _name,false,_proposal,_addr);\n        contestents.push(people(true, _name,false,_proposal,_addr));\n        addrToVoteCount[_addr]=0;\n    }\n\n    function addVoter (address _addr , string memory _name ) public isOwner{\n        require(peoples[_addr].isContestent==false,\"Already a voter\");\n        require(isVotingStarted==false,\"Voting already started\");\n        peoples[_addr]=people(false, _name,false,\"nil\",_addr);\n\n    }\n\n    function getProposal(address _addr) public view returns(string memory){\n        require(peoples[_addr].isContestent==true,\"Not a contestent\");\n        return peoples[_addr].proposal;\n    }\n\n    function getContestents() public view returns(people[] memory){\n        return contestents;\n    }\n\n    function startVoting() public isOwner{\n        isVotingStarted = true ;\n        votingStartTime = block.timestamp;\n        emit votingStarted();           \n    }\n\n    function castVote(address _addr) public  {\n        require(peoples[_addr].isContestent==true && isVotingStarted==true);\n        require(votingStartTime + votingTime > block.timestamp);\n        require(peoples[msg.sender].isVoted==false , \"Already Voted\");\n        peoples[msg.sender].isVoted= true;\n        addrToVoteCount[_addr]++;\n    }\n\n\n    function endElection() public isOwner{\n        isVotingEnded =true;\n    }\n\n    function getWinner() public view returns(people memory){\n        require(votingStartTime + votingTime <= block.timestamp || isVotingEnded == true);\n        people memory winner;\n        uint highestVote = 0;\n        for(uint i=0;i<contestents.length;i++){\n            if(addrToVoteCount[contestents[i].addr]>highestVote){\n                highestVote = addrToVoteCount[contestents[i].addr];\n                winner = contestents[i];\n            }\n        }\n        return winner;\n    }\n}\n\n",
  "sourcePath": "/home/neosoft/Documents/Gokul_work/voting-app/contracts/votingApp.sol",
  "compiler": {
    "name": "solc",
    "version": "0.8.1+commit.df193b15.Emscripten.clang"
  },
  "schemaVersion": "3.4.9",
  "updatedAt": "2022-08-26T09:07:09.212Z",
  "devdoc": {
    "kind": "dev",
    "methods": {
      "changeOwner(address)": {
        "details": "Change owner",
        "params": {
          "newOwner": "address of new owner"
        }
      },
      "getOwner()": {
        "details": "Return owner address ",
        "returns": {
          "_0": "address of owner"
        }
      }
    },
    "version": 1
  },
  "userdoc": {
    "kind": "user",
    "methods": {},
    "version": 1
  }
}